{"abi":[{"type":"function","name":"castVote","inputs":[{"name":"electionId","type":"uint256","internalType":"uint256"},{"name":"encryptedOption","type":"bytes32","internalType":"einput"},{"name":"inputProof","type":"bytes","internalType":"bytes"}],"outputs":[],"stateMutability":"nonpayable"},{"type":"function","name":"closeElection","inputs":[{"name":"electionId","type":"uint256","internalType":"uint256"}],"outputs":[],"stateMutability":"nonpayable"},{"type":"function","name":"createElection","inputs":[{"name":"title","type":"string","internalType":"string"},{"name":"options","type":"string[]","internalType":"string[]"}],"outputs":[{"name":"","type":"uint256","internalType":"uint256"}],"stateMutability":"nonpayable"},{"type":"function","name":"electionCounter","inputs":[],"outputs":[{"name":"","type":"uint256","internalType":"uint256"}],"stateMutability":"view"},{"type":"function","name":"elections","inputs":[{"name":"","type":"uint256","internalType":"uint256"}],"outputs":[{"name":"id","type":"uint256","internalType":"uint256"},{"name":"title","type":"string","internalType":"string"},{"name":"optionCount","type":"uint256","internalType":"uint256"},{"name":"isActive","type":"bool","internalType":"bool"},{"name":"voterCount","type":"uint256","internalType":"uint256"}],"stateMutability":"view"},{"type":"function","name":"encryptedTallies","inputs":[{"name":"","type":"uint256","internalType":"uint256"},{"name":"","type":"uint256","internalType":"uint256"}],"outputs":[{"name":"","type":"uint256","internalType":"euint32"}],"stateMutability":"view"},{"type":"function","name":"getElection","inputs":[{"name":"electionId","type":"uint256","internalType":"uint256"}],"outputs":[{"name":"title","type":"string","internalType":"string"},{"name":"options","type":"string[]","internalType":"string[]"},{"name":"isActive","type":"bool","internalType":"bool"},{"name":"voterCount","type":"uint256","internalType":"uint256"}],"stateMutability":"view"},{"type":"function","name":"getEncryptedTally","inputs":[{"name":"electionId","type":"uint256","internalType":"uint256"},{"name":"optionIndex","type":"uint256","internalType":"uint256"}],"outputs":[{"name":"","type":"uint256","internalType":"euint32"}],"stateMutability":"view"},{"type":"function","name":"hasVoted","inputs":[{"name":"","type":"uint256","internalType":"uint256"},{"name":"","type":"address","internalType":"address"}],"outputs":[{"name":"","type":"bool","internalType":"bool"}],"stateMutability":"view"},{"type":"event","name":"Broadcast256","inputs":[{"name":"handle","type":"uint256","indexed":false,"internalType":"uint256"}],"anonymous":false},{"type":"event","name":"BroadcastBool","inputs":[{"name":"handle","type":"bool","indexed":false,"internalType":"bool"}],"anonymous":false},{"type":"event","name":"BroadcastUint8","inputs":[{"name":"handle","type":"uint8","indexed":false,"internalType":"uint8"}],"anonymous":false},{"type":"event","name":"ElectionClosed","inputs":[{"name":"electionId","type":"uint256","indexed":true,"internalType":"uint256"}],"anonymous":false},{"type":"event","name":"ElectionCreated","inputs":[{"name":"electionId","type":"uint256","indexed":true,"internalType":"uint256"},{"name":"title","type":"string","indexed":false,"internalType":"string"},{"name":"optionCount","type":"uint256","indexed":false,"internalType":"uint256"}],"anonymous":false},{"type":"event","name":"TFHEasis","inputs":[{"name":"account","type":"address","indexed":false,"internalType":"address"}],"anonymous":false},{"type":"event","name":"VoteCast","inputs":[{"name":"electionId","type":"uint256","indexed":true,"internalType":"uint256"},{"name":"voter","type":"address","indexed":true,"internalType":"address"}],"anonymous":false}],"bytecode":{"object":"0x6080604052348015600e575f80fd5b506122c18061001c5f395ff3fe608060405234801561000f575f80fd5b5060043610610091575f3560e01c80635e6fef01116100645780635e6fef011461014157806361e37417146101755780638589c7a51461019357806389f4e87a146101af5780639d710777146101df57610091565b806309e33d0714610095578063156f24d1146100b1578063349813b2146100e15780634385963214610111575b5f80fd5b6100af60048036038101906100aa91906112aa565b610212565b005b6100cb60048036038101906100c691906112d5565b610307565b6040516100d8919061134c565b60405180910390f35b6100fb60048036038101906100f6919061141b565b610327565b60405161010891906114a8565b60405180910390f35b61012b6004803603810190610126919061151b565b610561565b6040516101389190611573565b60405180910390f35b61015b600480360381019061015691906112aa565b61058b565b60405161016c9594939291906115fc565b60405180910390f35b61017d61064f565b60405161018a91906114a8565b60405180910390f35b6101ad60048036038101906101a891906116dc565b610654565b005b6101c960048036038101906101c491906112d5565b61094e565b6040516101d6919061134c565b60405180910390f35b6101f960048036038101906101f491906112aa565b610a23565b6040516102099493929190611850565b60405180910390f35b5f60015f8381526020019081526020015f2090505f815f01540361026b576040517f08c379a0000000000000000000000000000000000000000000000000000000008152600401610262906118eb565b60405180910390fd5b806004015f9054906101000a900460ff166102bb576040517f08c379a00000000000000000000000000000000000000000000000000000000081526004016102b290611953565b60405180910390fd5b5f816004015f6101000a81548160ff021916908315150217905550817f393c4b8e62f1195313cf17dcf00793c668ddfc35881cd8015559c074f6d61e8360405160405180910390a25050565b6003602052815f5260405f20602052805f5260405f205f91509150505481565b5f80858590501161036d576040517f08c379a0000000000000000000000000000000000000000000000000000000008152600401610364906119bb565b60405180910390fd5b60028383905010156103b4576040517f08c379a00000000000000000000000000000000000000000000000000000000081526004016103ab90611a23565b60405180910390fd5b5f805f81546103c290611a6e565b91905081905590506040518060c0016040528082815260200187878080601f0160208091040260200160405190810160405280939291908181526020018383808284375f81840152601f19601f8201169050808301925050505050505081526020018585906104319190611c8e565b81526020018585905081526020016001151581526020015f81525060015f8381526020019081526020015f205f820151815f0155602082015181600101908161047a9190611e72565b506040820151816002019080519060200190610497929190611194565b50606082015181600301556080820151816004015f6101000a81548160ff02191690831515021790555060a082015181600501559050505f5b84849050811015610515576104e45f610c07565b60035f8481526020019081526020015f205f8381526020019081526020015f208190555080806001019150506104d0565b50807f43131521170c5b80ffe9526cfec987f5a24eb1f6c4bda47c41a5e4b8388afe5c87878787905060405161054d93929190611f6d565b60405180910390a280915050949350505050565b6002602052815f5260405f20602052805f5260405f205f915091509054906101000a900460ff1681565b6001602052805f5260405f205f91509050805f0154908060010180546105b090611ccf565b80601f01602080910402602001604051908101604052809291908181526020018280546105dc90611ccf565b80156106275780601f106105fe57610100808354040283529160200191610627565b820191905f5260205f20905b81548152906001019060200180831161060a57829003601f168201915b505050505090806003015490806004015f9054906101000a900460ff16908060050154905085565b5f5481565b5f60015f8681526020019081526020015f2090505f815f0154036106ad576040517f08c379a00000000000000000000000000000000000000000000000000000000081526004016106a4906118eb565b60405180910390fd5b806004015f9054906101000a900460ff166106fd576040517f08c379a00000000000000000000000000000000000000000000000000000000081526004016106f490611fe7565b60405180910390fd5b60025f8681526020019081526020015f205f3373ffffffffffffffffffffffffffffffffffffffff1673ffffffffffffffffffffffffffffffffffffffff1681526020019081526020015f205f9054906101000a900460ff1615610796576040517f08c379a000000000000000000000000000000000000000000000000000000000815260040161078d9061204f565b60405180910390fd5b5f6107e48585858080601f0160208091040260200160405190810160405280939291908181526020018383808284375f81840152601f19601f82011690508083019250505050505050610c1a565b90505f5b8260030154811015610884575f61080f61080a8461080585610c07565b610c2f565b610c75565b90505f610825826108206001610c07565b610c88565b905061085160035f8b81526020019081526020015f205f8581526020019081526020015f205482610cce565b60035f8b81526020019081526020015f205f8581526020019081526020015f2081905550505080806001019150506107e8565b50600160025f8881526020019081526020015f205f3373ffffffffffffffffffffffffffffffffffffffff1673ffffffffffffffffffffffffffffffffffffffff1681526020019081526020015f205f6101000a81548160ff021916908315150217905550816005015f8154809291906108fd90611a6e565b91905055503373ffffffffffffffffffffffffffffffffffffffff16867ff1003b73c437642c0460aee9cd9628b0b8c447b66e6c7c905531b9c644214a1160405160405180910390a3505050505050565b5f8060015f8581526020019081526020015f205f0154036109a4576040517f08c379a000000000000000000000000000000000000000000000000000000000815260040161099b906118eb565b60405180910390fd5b60015f8481526020019081526020015f206003015482106109fa576040517f08c379a00000000000000000000000000000000000000000000000000000000081526004016109f1906120b7565b60405180910390fd5b60035f8481526020019081526020015f205f8381526020019081526020015f2054905092915050565b6060805f805f60015f8781526020019081526020015f2090505f815f015403610a81576040517f08c379a0000000000000000000000000000000000000000000000000000000008152600401610a78906118eb565b60405180910390fd5b8060010181600201826004015f9054906101000a900460ff168360050154838054610aab90611ccf565b80601f0160208091040260200160405190810160405280929190818152602001828054610ad790611ccf565b8015610b225780601f10610af957610100808354040283529160200191610b22565b820191905f5260205f20905b815481529060010190602001808311610b0557829003601f168201915b5050505050935082805480602002602001604051908101604052809291908181526020015f905b82821015610bf1578382905f5260205f20018054610b6690611ccf565b80601f0160208091040260200160405190810160405280929190818152602001828054610b9290611ccf565b8015610bdd5780601f10610bb457610100808354040283529160200191610bdd565b820191905f5260205f20905b815481529060010190602001808311610bc057829003601f168201915b505050505081526020019060010190610b49565b5050505092509450945094509450509193509193565b5f610c13826004610d14565b9050919050565b5f610c2783836004610daf565b905092915050565b5f610c3983610ecb565b610c4957610c465f610c07565b92505b610c5282610ecb565b610c6257610c5f5f610c07565b91505b610c6d83835f610ed7565b905092915050565b5f610c81826004610f8d565b9050919050565b5f610c9283610ecb565b610ca257610c9f5f610c07565b92505b610cab82610ecb565b610cbb57610cb85f610c07565b91505b610cc683835f611028565b905092915050565b5f610cd883610ecb565b610ce857610ce55f610c07565b92505b610cf182610ecb565b610d0157610cfe5f610c07565b91505b610d0c83835f6110de565b905092915050565b5f7305fd9b5efe0a996095f42ed7e77c390810cf660c73ffffffffffffffffffffffffffffffffffffffff1663e71746b8848460f81b6040518363ffffffff1660e01b8152600401610d6792919061210f565b6020604051808303815f875af1158015610d83573d5f803e3d5ffd5b505050506040513d601f19601f82011682018060405250810190610da7919061214a565b905092915050565b5f7305fd9b5efe0a996095f42ed7e77c390810cf660c73ffffffffffffffffffffffffffffffffffffffff16632e817ff08533868660f81b6040518563ffffffff1660e01b8152600401610e0694939291906121e5565b6020604051808303815f875af1158015610e22573d5f803e3d5ffd5b505050506040513d601f19601f82011682018060405250810190610e46919061214a565b9050732fb4341027eb1d2ad8b5d9708187df8633cafa9273ffffffffffffffffffffffffffffffffffffffff16638d9c9c9282336040518363ffffffff1660e01b8152600401610e9792919061222f565b5f604051808303815f87803b158015610eae575f80fd5b505af1158015610ec0573d5f803e3d5ffd5b505050509392505050565b5f808214159050919050565b5f808215610eeb57600160f81b9050610ef2565b5f60f81b90505b7305fd9b5efe0a996095f42ed7e77c390810cf660c73ffffffffffffffffffffffffffffffffffffffff16636be317588686846040518463ffffffff1660e01b8152600401610f4393929190612256565b6020604051808303815f875af1158015610f5f573d5f803e3d5ffd5b505050506040513d601f19601f82011682018060405250810190610f83919061214a565b9150509392505050565b5f7305fd9b5efe0a996095f42ed7e77c390810cf660c73ffffffffffffffffffffffffffffffffffffffff16634be68d20848460f81b6040518363ffffffff1660e01b8152600401610fe092919061210f565b6020604051808303815f875af1158015610ffc573d5f803e3d5ffd5b505050506040513d601f19601f82011682018060405250810190611020919061214a565b905092915050565b5f80821561103c57600160f81b9050611043565b5f60f81b90505b7305fd9b5efe0a996095f42ed7e77c390810cf660c73ffffffffffffffffffffffffffffffffffffffff1663816d57d38686846040518463ffffffff1660e01b815260040161109493929190612256565b6020604051808303815f875af11580156110b0573d5f803e3d5ffd5b505050506040513d601f19601f820116820180604052508101906110d4919061214a565b9150509392505050565b5f8082156110f257600160f81b90506110f9565b5f60f81b90505b7305fd9b5efe0a996095f42ed7e77c390810cf660c73ffffffffffffffffffffffffffffffffffffffff1663f953e4278686846040518463ffffffff1660e01b815260040161114a93929190612256565b6020604051808303815f875af1158015611166573d5f803e3d5ffd5b505050506040513d601f19601f8201168201806040525081019061118a919061214a565b9150509392505050565b828054828255905f5260205f209081019282156111da579160200282015b828111156111d95782518290816111c99190611e72565b50916020019190600101906111b2565b5b5090506111e791906111eb565b5090565b5b8082111561120a575f8181611201919061120e565b506001016111ec565b5090565b50805461121a90611ccf565b5f825580601f1061122b5750611248565b601f0160209004905f5260205f2090810190611247919061124b565b5b50565b5b80821115611262575f815f90555060010161124c565b5090565b5f604051905090565b5f80fd5b5f80fd5b5f819050919050565b61128981611277565b8114611293575f80fd5b50565b5f813590506112a481611280565b92915050565b5f602082840312156112bf576112be61126f565b5b5f6112cc84828501611296565b91505092915050565b5f80604083850312156112eb576112ea61126f565b5b5f6112f885828601611296565b925050602061130985828601611296565b9150509250929050565b5f819050919050565b5f61133661133161132c84611277565b611313565b611277565b9050919050565b6113468161131c565b82525050565b5f60208201905061135f5f83018461133d565b92915050565b5f80fd5b5f80fd5b5f80fd5b5f8083601f84011261138657611385611365565b5b8235905067ffffffffffffffff8111156113a3576113a2611369565b5b6020830191508360018202830111156113bf576113be61136d565b5b9250929050565b5f8083601f8401126113db576113da611365565b5b8235905067ffffffffffffffff8111156113f8576113f7611369565b5b6020830191508360208202830111156114145761141361136d565b5b9250929050565b5f805f80604085870312156114335761143261126f565b5b5f85013567ffffffffffffffff8111156114505761144f611273565b5b61145c87828801611371565b9450945050602085013567ffffffffffffffff81111561147f5761147e611273565b5b61148b878288016113c6565b925092505092959194509250565b6114a281611277565b82525050565b5f6020820190506114bb5f830184611499565b92915050565b5f73ffffffffffffffffffffffffffffffffffffffff82169050919050565b5f6114ea826114c1565b9050919050565b6114fa816114e0565b8114611504575f80fd5b50565b5f81359050611515816114f1565b92915050565b5f80604083850312156115315761153061126f565b5b5f61153e85828601611296565b925050602061154f85828601611507565b9150509250929050565b5f8115159050919050565b61156d81611559565b82525050565b5f6020820190506115865f830184611564565b92915050565b5f81519050919050565b5f82825260208201905092915050565b8281835e5f83830152505050565b5f601f19601f8301169050919050565b5f6115ce8261158c565b6115d88185611596565b93506115e88185602086016115a6565b6115f1816115b4565b840191505092915050565b5f60a08201905061160f5f830188611499565b818103602083015261162181876115c4565b90506116306040830186611499565b61163d6060830185611564565b61164a6080830184611499565b9695505050505050565b5f819050919050565b61166681611654565b8114611670575f80fd5b50565b5f813590506116818161165d565b92915050565b5f8083601f84011261169c5761169b611365565b5b8235905067ffffffffffffffff8111156116b9576116b8611369565b5b6020830191508360018202830111156116d5576116d461136d565b5b9250929050565b5f805f80606085870312156116f4576116f361126f565b5b5f61170187828801611296565b945050602061171287828801611673565b935050604085013567ffffffffffffffff81111561173357611732611273565b5b61173f87828801611687565b925092505092959194509250565b5f81519050919050565b5f82825260208201905092915050565b5f819050602082019050919050565b5f82825260208201905092915050565b5f6117908261158c565b61179a8185611776565b93506117aa8185602086016115a6565b6117b3816115b4565b840191505092915050565b5f6117c98383611786565b905092915050565b5f602082019050919050565b5f6117e78261174d565b6117f18185611757565b93508360208202850161180385611767565b805f5b8581101561183e578484038952815161181f85826117be565b945061182a836117d1565b925060208a01995050600181019050611806565b50829750879550505050505092915050565b5f6080820190508181035f83015261186881876115c4565b9050818103602083015261187c81866117dd565b905061188b6040830185611564565b6118986060830184611499565b95945050505050565b7f456c656374696f6e20646f6573206e6f742065786973740000000000000000005f82015250565b5f6118d5601783611596565b91506118e0826118a1565b602082019050919050565b5f6020820190508181035f830152611902816118c9565b9050919050565b7f456c656374696f6e20616c726561647920636c6f7365640000000000000000005f82015250565b5f61193d601783611596565b915061194882611909565b602082019050919050565b5f6020820190508181035f83015261196a81611931565b9050919050565b7f5469746c652072657175697265640000000000000000000000000000000000005f82015250565b5f6119a5600e83611596565b91506119b082611971565b602082019050919050565b5f6020820190508181035f8301526119d281611999565b9050919050565b7f4174206c656173742032206f7074696f6e7320726571756972656400000000005f82015250565b5f611a0d601b83611596565b9150611a18826119d9565b602082019050919050565b5f6020820190508181035f830152611a3a81611a01565b9050919050565b7f4e487b71000000000000000000000000000000000000000000000000000000005f52601160045260245ffd5b5f611a7882611277565b91507fffffffffffffffffffffffffffffffffffffffffffffffffffffffffffffffff8203611aaa57611aa9611a41565b5b600182019050919050565b7f4e487b71000000000000000000000000000000000000000000000000000000005f52604160045260245ffd5b611aeb826115b4565b810181811067ffffffffffffffff82111715611b0a57611b09611ab5565b5b80604052505050565b5f611b1c611266565b9050611b288282611ae2565b919050565b5f67ffffffffffffffff821115611b4757611b46611ab5565b5b602082029050602081019050919050565b5f80fd5b5f67ffffffffffffffff821115611b7657611b75611ab5565b5b611b7f826115b4565b9050602081019050919050565b828183375f83830152505050565b5f611bac611ba784611b5c565b611b13565b905082815260208101848484011115611bc857611bc7611b58565b5b611bd3848285611b8c565b509392505050565b5f82601f830112611bef57611bee611365565b5b8135611bff848260208601611b9a565b91505092915050565b5f611c1a611c1584611b2d565b611b13565b90508083825260208201905060208402830185811115611c3d57611c3c61136d565b5b835b81811015611c8457803567ffffffffffffffff811115611c6257611c61611365565b5b808601611c6f8982611bdb565b85526020850194505050602081019050611c3f565b5050509392505050565b5f611c9a368484611c08565b905092915050565b7f4e487b71000000000000000000000000000000000000000000000000000000005f52602260045260245ffd5b5f6002820490506001821680611ce657607f821691505b602082108103611cf957611cf8611ca2565b5b50919050565b5f819050815f5260205f209050919050565b5f6020601f8301049050919050565b5f82821b905092915050565b5f60088302611d5b7fffffffffffffffffffffffffffffffffffffffffffffffffffffffffffffffff82611d20565b611d658683611d20565b95508019841693508086168417925050509392505050565b5f819050919050565b611d8f8361131c565b611da3611d9b82611d7d565b848454611d2c565b825550505050565b5f90565b611db7611dab565b611dc2818484611d86565b505050565b5b81811015611de557611dda5f82611daf565b600181019050611dc8565b5050565b601f821115611e2a57611dfb81611cff565b611e0484611d11565b81016020851015611e13578190505b611e27611e1f85611d11565b830182611dc7565b50505b505050565b5f82821c905092915050565b5f611e4a5f1984600802611e2f565b1980831691505092915050565b5f611e628383611e3b565b9150826002028217905092915050565b611e7b8261158c565b67ffffffffffffffff811115611e9457611e93611ab5565b5b611e9e8254611ccf565b611ea9828285611de9565b5f60209050601f831160018114611eda575f8415611ec8578287015190505b611ed28582611e57565b865550611f39565b601f198416611ee886611cff565b5f5b82811015611f0f57848901518255600182019150602085019450602081019050611eea565b86831015611f2c5784890151611f28601f891682611e3b565b8355505b6001600288020188555050505b505050505050565b5f611f4c8385611596565b9350611f59838584611b8c565b611f62836115b4565b840190509392505050565b5f6040820190508181035f830152611f86818587611f41565b9050611f956020830184611499565b949350505050565b7f456c656374696f6e206973206e6f7420616374697665000000000000000000005f82015250565b5f611fd1601683611596565b9150611fdc82611f9d565b602082019050919050565b5f6020820190508181035f830152611ffe81611fc5565b9050919050565b7f416c726561647920766f746564000000000000000000000000000000000000005f82015250565b5f612039600d83611596565b915061204482612005565b602082019050919050565b5f6020820190508181035f8301526120668161202d565b9050919050565b7f496e76616c6964206f7074696f6e20696e6465780000000000000000000000005f82015250565b5f6120a1601483611596565b91506120ac8261206d565b602082019050919050565b5f6020820190508181035f8301526120ce81612095565b9050919050565b5f7fff0000000000000000000000000000000000000000000000000000000000000082169050919050565b612109816120d5565b82525050565b5f6040820190506121225f830185611499565b61212f6020830184612100565b9392505050565b5f8151905061214481611280565b92915050565b5f6020828403121561215f5761215e61126f565b5b5f61216c84828501612136565b91505092915050565b61217e81611654565b82525050565b61218d816114e0565b82525050565b5f81519050919050565b5f82825260208201905092915050565b5f6121b782612193565b6121c1818561219d565b93506121d18185602086016115a6565b6121da816115b4565b840191505092915050565b5f6080820190506121f85f830187612175565b6122056020830186612184565b818103604083015261221781856121ad565b90506122266060830184612100565b95945050505050565b5f6040820190506122425f830185611499565b61224f6020830184612184565b9392505050565b5f6060820190506122695f830186611499565b6122766020830185611499565b6122836040830184612100565b94935050505056fea264697066735822122037744253b8cc667ae7caac60139c7f3fcd47bd5d7b7cb9498fad08a56e7b2ce864736f6c63430008190033","linkReferences":{}},"methodIdentifiers":{"castVote(uint256,bytes32,bytes)":"8589c7a5","closeElection(uint256)":"09e33d07","createElection(string,string[])":"349813b2","electionCounter()":"61e37417","elections(uint256)":"5e6fef01","encryptedTallies(uint256,uint256)":"156f24d1","getElection(uint256)":"9d710777","getEncryptedTally(uint256,uint256)":"89f4e87a","hasVoted(uint256,address)":"43859632"},"id":0}